:020000040800F2
:1000000000060020A102000851100008D10F0008CE
:1000100029100008D10F0008FD0F0008A3020008F6
:10002000A3020008A3020008A30200083D2900085B
:10003000A3020008A3020008A3020008A30200080C
:10004000A3020008A3020008A3020008A3020008FC
:10005000A3020008A3020008C53D0008F13D000806
:100060001D3E0008493E0008753E0008A302000836
:10007000A3020008A3020008A3020008A3020008CC
:10008000A3020008A3020008A3020008A3020008BC
:10009000A3020008A3020008A3020008A13E000872
:1000A000A3020008A3020008A3020008A30200089C
:1000B000A3020008A3020008A3020008A30200088C
:1000C000A3020008A3020008A3020008A30200087C
:1000D000A3020008A3020008A3020008A30200086C
:1000E000053F0008A3020008A3020008A3020008BD
:1000F000A3020008A3020008A3020008A30200084C
:10010000A3020008A30200088D3F0008A302000814
:10011000A3020008A3020008A3020008A30200082B
:10012000A3020008A3020008A3020008A30200081B
:10013000A3020008A3020008A3020008A30200080B
:10014000A3020008A3020008A3020008A3020008FB
:10015000A3020008A3020008A3020008A3020008EB
:10016000A3020008A3020008A3020008A3020008DB
:10017000A3020008A9340008A3020008A302000893
:10018000A3020008A3020008793F0008A3020008A8
:10019000A3020008A3020008A3020008A3020008AB
:1001A000A3020008A3020008A3020008A30200089B
:1001B000A3020008A3020008A3020008A30200088B
:1001C000A3020008A3020008A3020008A30200087B
:1001D000A302000895340008A3020008A302000847
:1001E000A3020008A3020008A3020008A30200085B
:1001F000A3020008A3020008A3020008A30200084B
:10020000A3020008A3020008A3020008A30200083A
:10021000A3020008A3020008A3020008A30200082A
:10022000A3020008A3020008A3020008A30200081A
:10023000A3020008A3020008A3020008A30200080A
:10024000A3020008A3020008A3020008A3020008FA
:10025000A3020008A3020008A3020008A3020008EA
:10026000A3020008A3020008A3020008A3020008DA
:10027000A3020008A3020008A3020008A3020008CA
:10028000A3020008A3020008A3020008A3020008BA
:10029000A3020008A3020008A3020008A3020008AA
:1002A00002E000F000F8FEE772B63A4880F30888F2
:1002B000394880F3098839484EF60851CEF20001DA
:1002C000086040F20000CCF200004EF63471CEF22D
:1002D00000010860BFF34F8FBFF36F8F40F2000043
:1002E000C0F2F0004EF68851CEF200010860BFF374
:1002F0004F8FBFF36F8F4FF00000E1EE100A4EF604
:100300003C71CEF200010860062080F31488BFF330
:100310006F8F02F0D1FB02F073FB03F00DFB4FF087
:1003200055301F491B4A91423CBF41F8040BFAE784
:100330001C49194A91423CBF41F8040BFAE71A499B
:100340001A4A1B4B9A423EBF51F8040B42F8040B69
:10035000F8E700201749184A91423CBF41F8040BC6
:10036000FAE702F08BFB03F06BFB144C144DAC422C
:1003700003DA54F8041B8847F9E700F041F8114C00
:10038000114DAC4203DA54F8041B8847F9E702F038
:1003900073BB0000000600200022002000000008BF
:1003A0000000002000060020A843000800220020D2
:1003B0005C22002060220020FC460020A0020008F1
:1003C000A0020008A0020008A00200082DE9F04FDA
:1003D0002DED108AC1F80CD0D0F80CD0BDEC108AED
:1003E000BDE8F08F002383F311882846A047002042
:1003F00001F08CFEFEE701F007FE00DFFEE70000E3
:1004000038B500F0DDFC30B1164B00220E211A7217
:100410005A729972DA7202F051FA054602F084FAC1
:100420000446D0B9104B9D4219D001339D4241F290
:10043000883512BF044600250124002002F048FA46
:100440000CB100F059F800F069FD00F0FFFB284600
:1004500000F004F900F050F8F9E70025EDE7054653
:10046000EBE700BF00220020010007B008B500F054
:10047000B9FBA0F120035842584108BD07B541F22D
:100480001203022101A8ADF8043000F0C9FB03B04B
:100490005DF804FB202310B583F311881248C3686C
:1004A0000BB101F0B9FE0023104A4FF47A710E48E7
:1004B00001F076FE002383F311880D4C236813B1FD
:1004C0002368013B2360636813B16368013B636089
:1004D000084B1B7833B9636823B9022000F090FC05
:1004E0003223636010BD00BF602200209504000825
:1004F0007C23002074220020F8B5514B514A1C4641
:100500001968013100F09B8004339342F8D162688E
:100510004D4B9A4240F293804C4B9B6803F1006331
:1005200003F500339A4280F08A80002000F0A8FB97
:100530000220474B187000F053FC464B0021D3F8C3
:10054000E820C3F8E810D3F81021C3F81011D3F84D
:100550001021D3F8EC20C3F8EC10D3F81421C3F821
:100560001411D3F81421D3F8F020C3F8F010D3F805
:100570001821C3F81811D3F81821D3F8802042F0BD
:100580000062C3F88020D3F8802022F00062C3F814
:100590008020D3F88020D3F8802042F00072C3F886
:1005A0008020D3F8802022F00072C3F88020D3F896
:1005B000803072B64FF0E023C3F8084DD4E9000450
:1005C000BFF34F8FBFF36F8F234AC2F88410BFF37E
:1005D0004F8F536923F480335361BFF34F8FD2F8A9
:1005E000803043F6E076C3F3C905C3F34E335B01B5
:1005F00003EA060C29464CEA81770139C2F8747285
:10060000F9D2203B13F1200FF2D1BFF34F8FBFF38C
:100610006F8FBFF34F8FBFF36F8F536923F4003396
:1006200053610023C2F85032BFF34F8FBFF36F8F77
:10063000202383F31188854680F308882047F8BD7E
:100640000000020820000208FFFF0108002200202D
:10065000742200200044025800ED00E02DE9F04F24
:1006600093B0A94B2022FF2100900AA89D6800F0BA
:10067000FFFBA64A1378A3B90121A5481170C360F6
:10068000202383F31188C3680BB101F0C5FD00235B
:10069000A04A4FF47A719E4801F082FD002383F353
:1006A0001188009B9C4A03B1136000239B49009C66
:1006B00098469B461E469A460B705360012000F0F8
:1006C0008FFB24B1944B1B68002B00F01682002096
:1006D00000F088FA0390039B002BF2DB012000F06E
:1006E00071FB039B213B162BE8D801A252F823F0A3
:1006F0004D0700087507000809080008BD06000836
:10070000BD060008BD0600089D0800086F0A000825
:1007100089090008EB090008130A0008390A0008D3
:10072000BD0600084B0A0008BD060008BD0A000807
:10073000ED070008BD060008010B00085907000876
:10074000ED070008BD060008EB0900080220FFF7CE
:100750008DFE002840F0FB81009B022105A8B8F126
:10076000000F08BF1C4641F21233ADF8143000F000
:1007700057FAA3E74FF47A7000F034FA071EEBDB68
:100780000220FFF773FE0028E6D0013F052F00F29C
:10079000E081DFE807F0030A0D101336052304217A
:1007A00005A8059300F03CFA17E004215648F9E744
:1007B00004215B48F6E704215A48F3E74FF01C098F
:1007C000484609F1040900F05DFA0421059005A8E6
:1007D00000F026FAB9F12C0FF2D101204FF0000AF7
:1007E00000FA07F747EA0B0B5FFA8BFB00F08CFB74
:1007F00026B10BF00B030B2B08BF0024FFF73EFEC6
:100800005CE704214848CDE7002EA5D00BF00B0390
:100810000B2BA1D10220FFF729FE074600289BD011
:1008200001203E4E00F02CFA4FF0000802203070FC
:1008300000F0D6FA5FFA88F9484600F031FA04462B
:1008400090B1484608F1010800F03AFA0028F1D1C9
:10085000B846044641F21213022105A83E46ADF8FF
:10086000143000F0DDF929E701232546022033701A
:1008700000F0A8FA244B9B68AB4207D9284600F049
:1008800001FA013040F068810435F3E70025234B7D
:10089000B8463E461D70204B5D60A7E7002E3FF432
:1008A0005BAF0BF00B030B2B7FF456AF02201B4BFF
:1008B000187000F095FA322000F094F9B0F10009B8
:1008C000FFF64AAF19F003077FF446AF0E4A09EB73
:1008D0000503926893423FF63FAFB9F5807F3FF73B
:1008E0003BAF124BB945019322DD4FF47A7000F013
:1008F00079F90390039A002AFFF62EAF039A013785
:10090000019B03F8012BEDE7002200207823002053
:1009100060220020950400087C230020742200201F
:1009200004220020082200200C220020782200202F
:10093000C820FFF79BFD074600283FF40DAF1F2D91
:1009400011D8C5F120020AAB25F0030084494A45BD
:10095000184428BF4A46019200F064FA019AFF2128
:100960007F4800F085FA4FEAA903C9F387027C4962
:100970002846019300F084FA064600283FF46AAF47
:10098000019B05EB830531E70220FFF76FFD00288F
:100990003FF4E2AE00F0B0F900283FF4DDAE0027EE
:1009A000B946704B9B68BB4218D91F2F11D80A9BC0
:1009B00001330ED027F0030312AA134453F8203C4E
:1009C00005934846042205A9043700F043FB8146FD
:1009D000E7E7384600F056F90590F2E7CDF81490B5
:1009E000042105A800F01CF900E70023642104A8F5
:1009F000049300F00BF900287FF4AEAE0220FFF75D
:100A000035FD00283FF4A8AE049800F06BF905907E
:100A1000E6E70023642104A8049300F0F7F8002817
:100A20007FF49AAE0220FFF721FD00283FF494AE38
:100A3000049800F059F9EAE70220FFF717FD0028B3
:100A40003FF48AAE00F068F9E1E70220FFF70EFDFF
:100A500000283FF481AE05A9142000F063F9074691
:100A60000421049004A800F0DBF83946B9E73220ED
:100A700000F0B8F8071EFFF66FAEBB077FF46CAE50
:100A8000384A07EB0A03926893423FF665AE0220AC
:100A9000FFF7ECFC00283FF45FAE27F00307574454
:100AA000BA453FF4A3AE50460AF1040A00F0EAF852
:100AB0000421059005A800F0B3F8F1E74FF47A702F
:100AC000FFF7D4FC00283FF447AE00F015F90028EA
:100AD00044D00A9B01330BD008220AA9002000F061
:100AE000CFF900283AD02022FF210AA800F0C0F94F
:100AF000FFF7C4FC1C4801F00FFB13B0BDE8F08FFA
:100B0000002E3FF429AE0BF00B030B2B7FF424AE29
:100B10000023642105A8059300F078F80746002813
:100B20007FF41AAE0220FFF7A1FC814600283FF4B3
:100B300013AEFFF7A3FC41F2883001F0EDFA0598FF
:100B400000F026FA4E463C4600F0DEF9B6E50646D1
:100B50004CE64FF0000AFFE5B8467BE6374679E6FB
:100B60007822002000220020A0860100F7B50C4664
:100B7000184E4FF47A71054602FB01F396F90020F6
:100B8000501C0BD11448294601930268176A22466B
:100B9000B8478442019B03D1002310E0002AF1D022
:100BA00096F90020511C01D0012A0DD10B4829468D
:100BB0000268166A2246B047844205D10123084ADA
:100BC0000120137003B0F0BD4FF4FA7001F0A4FAE5
:100BD0000020F7E710220020F0290020CC2300207D
:100BE000C8230020002307B5024601210DF10700AC
:100BF0008DF80730FFF7BAFF20B19DF8070003B06A
:100C00005DF804FB4FF0FF30F9E700000A460421CD
:100C100008B5FFF7ABFF80F00100C0B2404208BD4D
:100C2000074B0A4630B41978064B53F82140014669
:100C300023682046DD69044BAC4630BC604700BFEA
:100C4000C823002080400008A086010070B50A4E2D
:100C500000240A4D01F00AFD308028683388834261
:100C600008D901F0FFFC2B6804440133B4F5003FC0
:100C70002B60F2D370BD00BFCA2300208423002064
:100C800001F0D2BD00F1006000F50030006870474F
:100C900000F10060920000F5003001F049BD000055
:100CA000054B1A68054B1B889B1A834202D91044D6
:100CB00001F0D8BC0020704784230020CA23002004
:100CC00038B5074D04462868204401F0D1FC28B906
:100CD00028682044BDE8384001F0DCBC38BD00BFC6
:100CE000842300200020704700F1FF5000F58F1092
:100CF000D0F8000870470000064991F8243033B15D
:100D000000230822086A81F82430FFF7C1BF0120C0
:100D1000704700BF88230020014B1868704700BF50
:100D20000010005C244BF0B51A680446234BC2F354
:100D30000B06120C1F885868BE4293F9085028D041
:100D40009F89BE4206D101200C2505FB003358685F
:100D500093F9085041F201039A421CD041F2030377
:100D60009A421AD042F201039A4218D042F2030387
:100D70009A4208BF5625621E0B46441E0A449342FF
:100D80000FD214F9016F581C6EB1034600F8016CC4
:100D9000F5E70020D8E75A25EDE75925EBE7582578
:100DA000E9E7184605E02C2482421C7001D9981C02
:100DB0005D70401AF0BD00BF0010005C14220020DE
:100DC00000207047022802D1044B98617047012827
:100DD00002D1024B04229A61704700BF000C0258F6
:100DE000022804D1054B4FF400329A617047012864
:100DF000FCD1024B4FF48022F7E700BF000C0258F1
:100E0000022805D1064A536983F0020353617047F3
:100E10000128FCD1024A536983F00403F6E700BFBE
:100E2000000C0258002310B5934203D0CC5CC4548C
:100E30000133F9E710BD0000013810B510F9013F8A
:100E40003BB191F900409C4203D11AB10131013A02
:100E5000F4E71AB191F90020981A10BD1046FCE78A
:100E600003460246D01A12F9011B0029FAD1704735
:100E700002440346934202D003F8011BFAE770478D
:100E80002DE9F8431F4D14460746884695F824205F
:100E900052BBDFF870909CB395F824302BB9202218
:100EA000FF2148462F62FFF7E3FF95F824004146F3
:100EB000C0F1080205EB8000A24228BF2246D6B24C
:100EC0009200FFF7AFFF95F82430A41B17441E448F
:100ED0009044E4B2F6B2082E85F82460DBD1FFF727
:100EE0000BFF0028D7D108E02B6A03EB8203834273
:100EF000CFD0FFF701FF0028CBD10020BDE8F88359
:100F00000120FBE788230020024B1A78024B1A705D
:100F1000704700BFC82300201022002038B5164CAF
:100F2000164D204600F0FAFB2946204600F022FC30
:100F30002D681348D5F89020D2F8043843F0020306
:100F4000C2F8043801F0E8F80E49284600F020FD08
:100F5000D5F890200C48D2F804380C49A04223F070
:100F60000203C2F804384FF4E1330B6003D0BDE84C
:100F7000384000F031BB38BDF02900208C4100081A
:100F800040420F0094410008CC230020B0230020F1
:100F900038B50B4B04461A780A4B53F822500A4BCB
:100FA0009D420CD0094B002118221846FFF760FF24
:100FB000046001462846BDE8384000F00DBB38BD4E
:100FC000C823002080400008F0290020B023002022
:100FD00000B59BB0EFF3098168226846FFF722FF56
:100FE000EFF30583044B9A6BDA6A9A6A9A6A9A6AF3
:100FF0009A6A9A6A9B6AFEE700ED00E000B59BB032
:10100000EFF3098168226846FFF70CFFEFF30583D1
:10101000044B9A6B9A6A9A6A9A6A9A6A9A6A9B6A63
:10102000FEE700BF00ED00E000B59BB0EFF30981E3
:1010300068226846FFF7F6FEEFF30583034B5A6B11
:101040009A6A9A6A9A6A9A6A9B6AFEE700ED00E0D9
:10105000FEE7000030B50A44084D91420DD011F86A
:10106000013B5840082340F30004013B2C4013F09F
:10107000FF0384EA5000F6D1EFE730BD2083B8EDDE
:10108000026843681143016003B1184770470000CC
:10109000024A136843F0C0031360704700780040B1
:1010A00013B50E4C204600F08BFA04F11400002317
:1010B0004FF400720A49009400F04CF9094B4FF4C8
:1010C0000072094904F13800009400F0C5F9074A9C
:1010D000074BC4E9172302B010BD00BFCC2300208A
:1010E00038240020911000083826002000780040A5
:1010F00000E1F505037C30B5244C002918BF0C46EF
:10110000012B11D1224B98420ED1224BD3F8E8206B
:1011100042F08042C3F8E820D3F8102142F0804228
:10112000C3F81021D3F810312268036EC16D03EBB0
:1011300052038466B3FBF2F36268150442BF23F0E6
:10114000070503F0070343EA4503CB60A36843F0B8
:1011500040034B60E36843F001038B6042F49673F5
:1011600043F001030B604FF0FF330B62510505D5CF
:1011700012F0102205D0B2F1805F04D080F8643004
:1011800030BD7F23FAE73F23F8E700BF884000081F
:10119000CC230020004402582DE9F047C66D0546D7
:1011A0003768F4692107346219D014F0080118BFB8
:1011B0008021E20748BF41F02001A3074FF0200340
:1011C00048BF41F04001600748BF41F4807183F39C
:1011D0001188281DFFF754FF002383F31188E205CF
:1011E0000AD5202383F311884FF40071281DFFF7DF
:1011F00047FF002383F311884FF020094FF0000AC6
:1012000014F0200838D13B0616D54FF0200905F11F
:10121000380A200610D589F31188504600F050F99D
:10122000002836DA0821281DFFF72AFF27F080035F
:101230003360002383F31188790614D5620612D532
:10124000202383F31188D5E913239A4208D12B6C0C
:1012500033B127F040071021281DFFF711FF376039
:10126000002383F31188E30618D5AA6E1369ABB186
:101270005069BDE8F047184789F31188736A28461A
:1012800095F86410194000F0B5F98AF31188F469F3
:10129000B6E7B06288F31188F469BAE7BDE8F08771
:1012A000F8B51546826804460B46AA4200D2856806
:1012B000A1692669761AB5420BD218462A46FFF76D
:1012C000B1FDA3692B44A3612846A3685B1BA360FF
:1012D000F8BD0CD9AF1B18463246FFF7A3FD3A46BE
:1012E000E1683044FFF79EFDE3683B44EBE71846B6
:1012F0002A46FFF797FDE368E5E70000836893421D
:10130000F7B50446154600D28568D4E90460361A5C
:10131000B5420BD22A46FFF785FD63692B44636112
:101320002846A3685B1BA36003B0F0BD0DD932460D
:10133000AF1B0191FFF776FD01993A46E068314411
:10134000FFF770FDE3683B44E9E72A46FFF76AFDD3
:10135000E368E4E710B50A440024C361029B84609B
:10136000C16002610362C0E90000C0E9051110BD5F
:1013700008B5D0E90532934201D1826882B982680A
:10138000013282605A1C426119700021D0E9043296
:101390009A4224BFC368436100F0DAFE002008BD12
:1013A0004FF0FF30FBE7000070B5202304460E46E7
:1013B00083F31188A568A5B1A368A269013BA36066
:1013C000531CA36115782269934224BFE368A3618B
:1013D000E3690BB120469847002383F31188284620
:1013E00007E03146204600F0A3FE0028E2DA85F34C
:1013F000118870BD2DE9F74F04460E4617469846F2
:10140000D0F81C904FF0200A8AF311884FF0000B9F
:10141000154665B12A4631462046FFF741FF03468F
:1014200060B94146204600F083FE0028F1D0002339
:1014300083F31188781B03B0BDE8F08FB9F1000F7A
:1014400003D001902046C847019B8BF31188ED1A09
:101450001E448AF31188DCE7C160C361009B82608F
:101460000362C0E905111144C0E900000161704741
:10147000F8B504460D461646202383F31188A76865
:10148000A7B1A368013BA36063695A1C62611D7028
:10149000D4E904329A4224BFE3686361E3690BB183
:1014A00020469847002080F3118807E03146204607
:1014B00000F03EFE0028E2DA87F31188F8BD000054
:1014C000D0E9052310B59A4201D182687AB98268C1
:1014D0000021013282605A1C82611C7803699A42A1
:1014E00024BFC368836100F033FE204610BD4FF077
:1014F000FF30FBE72DE9F74F04460E4617469846A6
:10150000D0F81C904FF0200A8AF311884FF0000B9E
:10151000154665B12A4631462046FFF7EFFE0346E1
:1015200060B94146204600F003FE0028F1D00023B8
:1015300083F31188781B03B0BDE8F08FB9F1000F79
:1015400003D001902046C847019B8BF31188ED1A08
:101550001E448AF31188DCE7026843681143016086
:1015600003B11847704700001430FFF743BF000075
:101570004FF0FF331430FFF73DBF00003830FFF766
:10158000B9BF00004FF0FF333830FFF7B3BF0000A2
:101590001430FFF709BF00004FF0FF311430FFF7A0
:1015A00003BF00003830FFF763BF00004FF0FF3289
:1015B0003830FFF75DBF000000207047FFF770BDB7
:1015C000044B036000234360C0E90233012303742A
:1015D000704700BFA040000810B52023044683F3E5
:1015E0001188FFF787FD02232374002383F31188FA
:1015F00010BD000038B5C36904460D461BB904216F
:101600000844FFF7A9FF294604F11400FFF7B0FED4
:10161000002806DA201D4FF48061BDE83840FFF74E
:101620009BBF38BD026843681143016003B118478E
:101630007047000013B5406B00F58054D4F8A4380F
:101640001A681178042914D1017C022911D1197961
:10165000012312898B4013420BD101A94C3002F0B7
:101660006BF8D4F8A4480246019B2179206800F069
:10167000DFF902B010BD0000143001F0EDBF000032
:101680004FF0FF33143001F0E7BF00004C3002F0A0
:10169000BFB800004FF0FF334C3002F0B9B8000083
:1016A000143001F0BBBF00004FF0FF31143001F0E7
:1016B000B5BF00004C3002F08BB800004FF0FF3295
:1016C0004C3002F085B800000020704710B500F5DE
:1016D0008054D4F8A4381A681178042917D1017CF1
:1016E000022914D15979012352898B4013420ED11A
:1016F000143001F04DFF024648B1D4F8A4484FF42D
:10170000407361792068BDE8104000F07FB910BDDA
:10171000406BFFF7DBBF0000704700007FB5124B46
:1017200001250426044603600023057400F18402A9
:1017300043602946C0E902330C4B029014300193F8
:101740004FF44073009601F0FFFE094B04F69442FB
:10175000294604F14C000294CDE900634FF4407334
:1017600001F0C6FF04B070BDC840000811170008A2
:10177000351600080A68202383F311880B790B3390
:1017800042F823004B79133342F823008B7913B1CD
:101790000B3342F8230000F58053C3F8A41802234A
:1017A0000374002383F311887047000038B5037F6A
:1017B000044613B190F85430ABB90125201D022125
:1017C000FFF730FF04F114006FF00101257700F0FE
:1017D000CBFC04F14C0084F854506FF00101BDE8DB
:1017E000384000F0C1BC38BD10B5012104460430BA
:1017F000FFF718FF0023237784F8543010BD000052
:1018000038B504460025143001F0B6FE04F14C0052
:10181000257701F085FF201D84F854500121FFF742
:1018200001FF2046BDE83840FFF750BF90F88030F8
:1018300003F06003202B06D190F881200023212A99
:1018400003D81F2A06D800207047222AFBD1C0E9FE
:101850001D3303E0034A426707228267C367012002
:10186000704700BF2C22002037B500F58055D5F811
:10187000A4381A68117804291AD1017C022917D1D9
:101880001979012312898B40134211D100F14C04C4
:10189000204602F005F858B101A9204601F04CFF9E
:1018A000D5F8A4480246019B2179206800F0C0F8D1
:1018B00003B030BD01F10B03F0B550F8236085B0E3
:1018C00004460D46FEB1202383F3118804EB8507FF
:1018D000301D0821FFF7A6FEFB6806F14C005B698E
:1018E0001B681BB1019001F035FF019803A901F0BD
:1018F00023FF024648B1039B2946204600F098F892
:10190000002383F3118805B0F0BDFB685A691268A3
:10191000002AF5D01B8A013B1340F1D104F180026B
:10192000EAE70000133138B550F82140ECB120232C
:1019300083F3118804F58053D3F8A42813685279EF
:1019400003EB8203DB689B695D6845B10421601885
:10195000FFF768FE294604F1140001F023FE20463B
:10196000FFF7B4FE002383F3118838BD70470000F1
:1019700001F016B901234022002110B5044600F8F9
:10198000303BFFF775FA0023C4E9013310BD0000B6
:1019900010B52023044683F31188242241600021DE
:1019A0000C30FFF765FA204601F01CF90223237082
:1019B000002383F3118810BD70B500EB8103054649
:1019C00050690E461446DA6018B110220021FFF764
:1019D0004FFAA06918B110220021FFF749FA3146E9
:1019E0002846BDE8704001F00FBA0000836820224D
:1019F000002103F0011310B5044683601030FFF797
:101A000037FA2046BDE8104001F08ABAF0B401254B
:101A100000EB810447898D40E4683D43A46945811A
:101A200023600023A2606360F0BC01F0A7BA00004D
:101A3000F0B4012500EB810407898D40E4683D4343
:101A40006469058123600023A2606360F0BC01F03B
:101A50001DBB000070B5022300250446242203703C
:101A60002946C0F888500C3040F8045CFFF700FAB3
:101A7000204684F8705001F05BF963681B6823B15D
:101A800029462046BDE87040184770BD037880F8AD
:101A90008C300523037043681B6810B504460BB1F6
:101AA000042198470023A36010BD000090F88C200B
:101AB000436802701B680BB105211847704700008E
:101AC00070B590F87030044613B1002380F8703080
:101AD00004F18002204601F047FA63689B68B3B9BD
:101AE00094F8803013F0600535D00021204601F0D5
:101AF000F1FC0021204601F0E1FC63681B6813B192
:101B0000062120469847062384F8703070BD204691
:101B100098470028E4D0B4F88630A26F9A4288BF74
:101B2000A36794F98030A56F002B4FF0200380F25B
:101B30000381002D00F0F280092284F8702083F3E5
:101B4000118800212046D4E91D23FFF771FF0023EF
:101B500083F31188DAE794F8812003F07F0343EAE6
:101B6000022340F20232934200F0C58021D8B3F53F
:101B7000807F48D00DD8012B3FD0022B00F09380FE
:101B8000002BB2D104F1880262670222A267E367E8
:101B9000C1E7B3F5817F00F09B80B3F5407FA4D10E
:101BA00094F88230012BA0D1B4F8883043F00203BE
:101BB00032E0B3F5006F4DD017D8B3F5A06F31D038
:101BC000A3F5C063012B90D86368204694F8822067
:101BD0005E6894F88310B4F88430B047002884D04D
:101BE000436863670368A3671AE0B3F5106F36D0E4
:101BF00040F6024293427FF478AF5C4B6367022366
:101C0000A3670023C3E794F88230012B7FF46DAF04
:101C1000B4F8883023F00203A4F88830C4E91D55D5
:101C2000E56778E7B4F88030B3F5A06F0ED194F88B
:101C30008230204684F88A3001F0D8F863681B6847
:101C400013B1012120469847032323700023C4E9E0
:101C50001D339CE704F18B0363670123C3E72378FB
:101C6000042B10D1202383F311882046FFF7BEFEFA
:101C700085F311880321636884F88B5021701B68F9
:101C80000BB12046984794F88230002BDED084F8C0
:101C90008B300423237063681B68002BD6D002218D
:101CA00020469847D2E794F8843020461D0603F07A
:101CB0000F010AD501F04AF9012804D002287FF467
:101CC00014AF2B4B9AE72B4B98E701F031F9F3E770
:101CD00094F88230002B7FF408AF94F8843013F02E
:101CE0000F01B3D01A06204602D501F00BFCADE778
:101CF00001F0FCFBAAE794F88230002B7FF4F5AEEC
:101D000094F8843013F00F01A0D01B06204602D5B2
:101D100001F0E0FB9AE701F0D1FB97E7142284F889
:101D2000702083F311882B462A4629462046FFF768
:101D30006DFE85F31188E9E65DB1152284F8702007
:101D400083F3118800212046D4E91D23FFF75EFEAE
:101D5000FDE60B2284F8702083F311882B462A4677
:101D600029462046FFF764FEE3E700BFF84000087D
:101D7000F0400008F440000838B590F87030044690
:101D8000002B3ED0063BDAB20F2A34D80F2B32D8C4
:101D9000DFE803F03731310822323131313131316E
:101DA00031313737856FB0F886309D4214D2C36821
:101DB0001B8AB5FBF3F203FB12556DB9202383F3A5
:101DC00011882B462A462946FFF732FE85F31188F3
:101DD0000A2384F870300EE0142384F87030202336
:101DE00083F31188002320461A461946FFF70EFE9A
:101DF000002383F3118838BDC36F03B198470023D4
:101E0000E7E70021204601F065FB0021204601F0B4
:101E100055FB63681B6813B10621204698470623CB
:101E2000D7E7000010B590F870300446142B29D085
:101E300017D8062B05D001D81BB110BD093B022BCA
:101E4000FBD80021204601F045FB0021204601F08F
:101E500035FB63681B6813B10621204698470623AB
:101E600019E0152BE9D10B2380F87030202383F380
:101E7000118800231A461946FFF7DAFD002383F381
:101E80001188DAE7C3689B695B68002BD5D1C36F03
:101E900003B19847002384F87030CEE7024B00224C
:101EA000C3E900339A607047382800200023826815
:101EB0000374054B1B6899689142FBD25A68036012
:101EC00042601060586070473828002008B5202311
:101ED00083F31188037C032B05D0042B0DD02BB981
:101EE00083F3118808BD436900221A604FF0FF3365
:101EF0004361FFF7DBFF0023F2E7D0E90032136014
:101F00005A60F3E7002382680374054B1B689968E5
:101F10009142FBD85A680360426010605860704775
:101F200038280020054B1969087418680268536046
:101F30001A60186101230374FEF748BA382800209C
:101F40004B1C30B5044687B00A4D10D02B6901A850
:101F5000094A00F025F92046FFF7E4FF049B13B17E
:101F600001A800F059F92B69586907B030BDFFF797
:101F7000D9FFF8E738280020CD1E000838B50C4DF1
:101F8000044641612B6981689A68914203D8BDE893
:101F90003840FFF78BBF1846FFF7B4FF01232C61D1
:101FA000014623742046BDE83840FEF70FBA00BF53
:101FB00038280020044B1A681B6990689B68984277
:101FC00094BF0020012070473828002010B5084C2D
:101FD000236820691A6854602260012223611A7400
:101FE000FFF790FF01462069BDE81040FEF7EEB90B
:101FF0003828002008B5FFF7DDFF18B1BDE808401C
:10200000FFF7E4BF08BD0000FFF7E0BFFEE70000F8
:1020100010B50C4CFFF742FF00F0B4F880220A49DB
:10202000204600F03BF8012344F8180C037400F03C
:1020300095FC002383F3118862B60448BDE8104084
:1020400000F04CB860280020FC4000080C4100085B
:1020500000F01CB9EFF3118020B9EFF305832022C3
:1020600082F311887047000010B530B9EFF3058492
:10207000C4F3080414B180F3118810BDFFF7BAFF50
:1020800084F31188F9E70000034A516853685B1A2A
:102090009842FBD8704700BF001000E08260022227
:1020A000028270478368A3F17C0243F80C2C02691A
:1020B00043F83C2C426943F8382C074A43F81C2C5F
:1020C000C268A3F1180043F8102C022203F8082C70
:1020D000002203F8072C7047E503000810B5202301
:1020E00083F31188FFF7DEFF00210446FFF746FF68
:1020F000002383F31188204610BD0000024B1B69AA
:1021000058610F20FFF70EBF38280020202383F3EB
:102110001188FFF7F3BF000008B50146202383F3C1
:1021200011880820FFF70CFF002383F3118808BDF6
:1021300049B1064B42681B6918605A6013604360DE
:102140000420FFF7FDBE4FF0FF3070473828002015
:102150000368984206D01A680260506018465961B8
:10216000FFF7A4BE7047000038B504460D4620684E
:10217000844200D138BD036823605C604561FFF78D
:1021800095FEF4E7054B4FF0FF3103F11402C3E96C
:1021900005220022C3E90712704700BF382800203B
:1021A00070B51C4E05460C46C0E9032301F0AEFB9A
:1021B000334653F8142F9A420DD130620A2C2CBFAB
:1021C00000190A302A60C5E90124C6E90555BDE8B1
:1021D000704001F085BB316A431AE31838BF1C46D2
:1021E0009368A34202D9081901F08AFB73699A68BF
:1021F00094420CD85A68AC602B606A6015609A688B
:102200005D60121B9A604FF0FF33F36170BDA41A3A
:102210001B68ECE73828002038B51B4C63699842EE
:102220000DD08168D0E9003213605A600022C2608C
:102230009A680A449A604FF0FF33E36138BD03683F
:102240002246002142F8143F93425A60C16003D1F4
:10225000BDE8384001F04EBB9A688168256A0A449F
:102260009A6001F053FB6369411B9A688A42E5D981
:10227000AB181D1A206A092D98BF01F10A02BDE8AA
:102280003840104401F03CBB382800202DE9F041D3
:10229000184C002704F11406656901F037FB236A26
:1022A000AA68C11A8A4215D81344D5F80C80236253
:1022B000D5E9003213605A606369EF60B34201D11F
:1022C00001F018FB87F311882869C047202383F3A6
:1022D0001188E1E76169B14209D013441B1ABDE8D6
:1022E000F0410A2B2CBFC0180A3001F009BBBDE831
:1022F000F08100BF3828002000207047FEE7000072
:10230000704700004FF0FF307047000002290CD0EA
:10231000032904D00129074818BF00207047032A69
:1023200005D8054800EBC2007047044870470020FC
:10233000704700BFF04100083C220020A441000883
:1023400070B59AB005460846144601A900F0C2F8D7
:1023500001A8FEF785FD431C0022C6B25B001046B3
:10236000C5E9003423700323023404F8013C01ABB7
:10237000D1B202348E4201D81AB070BD13F8011BDD
:10238000013204F8010C04F8021CF1E708B520231F
:1023900083F311880348FFF767FA002383F311885A
:1023A00008BD00BFF029002090F8803003F01F0224
:1023B000012A07D190F881200B2A03D10023C0E91C
:1023C0001D3315E003F06003202B08D1B0F88430F2
:1023D0002BB990F88120212A03D81F2A04D8FFF7AF
:1023E00025BA222AEBD0FAE7034A4267072282671E
:1023F000C3670120704700BF3322002007B50529BD
:1024000017D8DFE801F0191603191920202383F3E8
:102410001188104A01210190FFF7CEFA019802219C
:102420000D4AFFF7C9FA0D48FFF7EAF9002383F3D5
:10243000118803B05DF804FB202383F3118807485B
:10244000FFF7B4F9F2E7202383F311880348FFF77D
:10245000CBF9EBE74441000868410008F02900206F
:1024600038B50C4D0C4C2A460C4904F10800FFF716
:1024700067FF05F1CA0204F110000949FFF760FF88
:1024800005F5CA7204F118000649BDE83840FFF7A7
:1024900057BF00BFC84200203C2200202441000852
:1024A0002E4100083941000870B5044608460D4623
:1024B000FEF7D6FCC6B22046013403780BB91846A5
:1024C00070BD32462946FEF7B7FC0028F3D1012043
:1024D000F6E700002DE9F84F05460C46FEF7C0FC74
:1024E0002A49C6B22846FFF7DFFF08B10136F6B227
:1024F00027492846FFF7D8FF08B11036F6B2632EF9
:102500000DD8DFF88890DFF888A0224FDFF88CB074
:10251000DFF88C802E7846B92670BDE8F88F294602
:102520002046BDE8F84F01F095BD252E2AD107229F
:1025300049462846FEF780FC50B9D8F800300735E8
:10254000083444F8083CD8F8043044F8043CE1E787
:10255000082251462846FEF76FFC98B9A21C0E4B84
:10256000197802320909C95D02F8041C13F8011B2D
:1025700001F00F015B45C95D02F8031CF0D118346E
:102580000835C7E7013504F8016BC3E710420008BE
:10259000394100082142000800E8F11F0CE8F11F52
:1025A00018420008BFF34F8F044B1A695107FCD142
:1025B000D3F810215207F8D1704700BF0020005215
:1025C00008B50D4B1B78ABB9FFF7ECFF0B4BDA6886
:1025D000D10704D50A4A5A6002F188325A60D3F80A
:1025E0000C21D20706D5064AC3F8042102F188322D
:1025F000C3F8042108BD00BF26450020002000527A
:102600002301674508B5114B1B78F3B9104B1A69C4
:10261000510703D5DA6842F04002DA60D3F810219E
:10262000520705D5D3F80C2142F04002C3F80C2123
:10263000FFF7B8FF064BDA6842F00102DA60D3F820
:102640000C2142F00102C3F80C2108BD26450020F0
:10265000002000520F289ABF00F58060400400203F
:10266000704700004FF400307047000010207047A2
:102670000F2808B50BD8FFF7EDFF00F5003302680F
:10268000013204D104308342F9D1012008BD002079
:10269000FCE700000F2870B5054645D8FFF7DAFCC7
:1026A000224CFFF77FFF0646FFF78AFF4FF0FF330C
:1026B000072D6361C4F8143120D82361FFF772FF3E
:1026C0002B0243F02403E360E36843F08003E360FC
:1026D00023695A07FCD42846FFF764FF4FF4003102
:1026E000FFF7B8FF00F002F93046FFF78BFFFFF766
:1026F000BBFC2846BDE87040FFF7BABFC4F81031F4
:10270000FFF750FFA5F108031B0243F02403C4F8B0
:102710000C31D4F80C3143F08003C4F80C31D4F8F8
:1027200010315B07FBD4D6E7002070BD00200052BB
:102730002DE9F84F40EA020305460C461746D80635
:1027400002D00020BDE8F88F27F01F07DFF8D4B0D3
:10275000FFF736FF2744BC4203D10120FFF752FFA9
:10276000F0E720222946204601F064FC10B920350C
:102770002034F0E72B4605F120021E68711CE0D1E1
:1027800004339A42F9D1FFF765FC05F17843234AF7
:10279000B3F5801F224B28BF9A4603F1040338BFCC
:1027A0009046A2F1080228BF9846A3F108033ABF59
:1027B0009146DA469946FFF7F5FEC8F80060A5EBAA
:1027C000040CD9F8002004F11C0142F00202C9F8FF
:1027D0000020221FDAF8006016F00506FAD152F840
:1027E000043F8A424CF80230F4D1BFF34F8FFFF719
:1027F000D9FE4FF0FF32C8F80020D9F8002022F0AF
:102800000202C9F80020FFF72FFC202221462846AB
:1028100001F010FC0028AAD030469FE71420005297
:10282000102100521020005210B5084C237828B116
:102830001BB9FFF7C5FE0123237010BD002BFCD090
:102840002070BDE81040FFF7DDBE00BF2645002028
:102850000244074BD2B210B5904200D110BD441CC7
:1028600000B253F8200041F8040BE0B2F4E700BFD7
:10287000504000580E4B30B51C6F240405D41C6F1B
:102880001C671C6F44F400441C670A4C0244236814
:10289000D2B243F480732360074B904200D130BD25
:1028A000441C51F8045B00B243F82050E0B2F4E756
:1028B00000440258004802585040005807B5012211
:1028C00001A90020FFF7C4FF019803B05DF804FBE5
:1028D00013B50446FFF7F2FFA04205D0012201A97B
:1028E00000200194FFF7C6FF02B010BD0144BFF302
:1028F0004F8F064B884204D3BFF34F8FBFF36F8FC8
:102900007047C3F85C022030F4E700BF00ED00E040
:10291000034B1A681AB9034AD2F8D0241A607047D8
:10292000284500200040025808B5FFF7F1FF024B90
:102930001868C0F3806008BD28450020EFF30983C4
:10294000054968334A6B22F001024A6383F3098820
:10295000002383F31188704700EF00E0202080F30C
:10296000118862B60D4B0E4AD96821F4E061090462
:10297000090C0A430B49DA60D3F8FC2042F080725C
:10298000C3F8FC20084AC2F8B01F116841F00101E9
:1029900011601022DA7783F82200704700ED00E022
:1029A0000003FA0555CEACC5001000E0202310B599
:1029B00083F311880E4B5B6813F4006314D0F1EEBF
:1029C000103AEFF309844FF08073683CE361094BE0
:1029D000DB6B236684F30988FFF7ECFA10B1064B32
:1029E000A36110BD054BFBE783F31188F9E700BF36
:1029F00000ED00E000EF00E0F7030008FA03000834
:102A000070B5BFF34F8FBFF36F8F1A4A0021C2F822
:102A10005012BFF34F8FBFF36F8F536943F40033EE
:102A20005361BFF34F8FBFF36F8FC2F88410BFF3B2
:102A30004F8FD2F8803043F6E074C3F3C900C3F37C
:102A40004E335B0103EA0406014646EA817501390B
:102A5000C2F86052F9D2203B13F1200FF2D1BFF33C
:102A60004F8F536943F480335361BFF34F8FBFF3EC
:102A70006F8F70BD00ED00E0FEE700000A4B0B48D1
:102A80000B4A90420BD30B4BC11EDA1C121A22F0D8
:102A900003028B4238BF00220021FEF7E9B953F848
:102AA000041B40F8041BECE704440008FC4600202B
:102AB000FC460020FC4600207047000070B5D0E9BD
:102AC000244300224FF0FF359E6804EB421351016E
:102AD000D3F80009002805DAD3F8000940F0804057
:102AE000C3F80009D3F8000B002805DAD3F8000B6F
:102AF00040F08040C3F8000B013263189642C3F8DF
:102B00000859C3F8085BE0D24FF00113C4F81C3831
:102B100070BD000000EB8103D3F80CC02DE9F04339
:102B2000DCF814204E1CD0F89050D2F800E005EBF1
:102B3000063605EB4118506870450AD30122D5F8D6
:102B4000343802FA01F123EA0101C5F83418BDE86E
:102B5000F083AEEB0003BCF81040A34228BF23462D
:102B6000D8F81849A4B2B3EB840FF0D89468A4F154
:102B7000040959F8047F3760A4EB09071F44042FA8
:102B8000F7D81C44034494605360D4E7890141F0B2
:102B90002001016103699B06FCD41220FFF774BA7F
:102BA00010B50A4C2046FEF7E5FE094BC4F89030FC
:102BB000084BC4F89430084C2046FEF7DBFE074B68
:102BC000C4F89030064BC4F8943010BD2C4500205A
:102BD0000000084058420008C8450020000004409A
:102BE0006442000870B503780546012B5DD1494B5E
:102BF000D0F89040984259D1474B0E216520D3F828
:102C0000D82042F00062C3F8D820D3F8002142F067
:102C10000062C3F80021D3F80021D3F8802042F0ED
:102C20000062C3F88020D3F8802022F00062C3F84D
:102C30008020D3F8803000F071FC384BE360384BD3
:102C4000C4F800380023D5F89060C4F8003EC023D3
:102C500023604FF40413A3633369002BFCDA0123D0
:102C60000C203361FFF710FA3369DB07FCD4122024
:102C7000FFF70AFA3369002BFCDA00262846A66023
:102C8000FFF71CFF6B68C4F81068DB68C4F81468B1
:102C9000C4F81C68002B3AD1224BA3614FF0FF33DC
:102CA0006361A36843F00103A36070BD1E4B9842AB
:102CB000C8D1194B0E214D20D3F8D82042F0007214
:102CC000C3F8D820D3F8002142F00072C3F80021E5
:102CD000D3F80021D3F8802042F00072C3F880209E
:102CE000D3F8802022F00072C3F88020D3F880202F
:102CF000D3F8D82022F08062C3F8D820D3F800217E
:102D000022F08062C3F80021D3F8003193E7074B2B
:102D1000C3E700BF2C450020004402584014004087
:102D200003002002003C30C0C8450020083C30C0F1
:102D3000F8B5D0F89040054600214FF000662046D7
:102D4000FFF724FFD5F8941000234FF001128F688D
:102D50004FF0FF30C4F83438C4F81C2804EB431299
:102D600001339F42C2F80069C2F8006BC2F808093B
:102D7000C2F8080BF2D20B68D5F89020C5F898304D
:102D8000636210231361166916F01006FBD112203E
:102D9000FFF77AF9D4F8003823F4FE63C4F800385A
:102DA000A36943F4402343F01003A3610923C4F84B
:102DB0001038C4F814380B4BEB604FF0C043C4F824
:102DC000103B094BC4F8003BC4F81069C4F8003943
:102DD000D5F8983003F1100243F48013C5F8982019
:102DE000A362F8BD3442000840800010D0F8902063
:102DF00090F88A10D2F8003823F4FE6343EA0113F6
:102E0000C2F80038704700002DE9F84300EB810359
:102E1000D0F890500C468046DA680FFA81F94801E4
:102E2000166806F00306731E022B05EB41134FF0E4
:102E3000000194BFB604384EC3F8101B4FF00101D7
:102E400004F1100398BF06F1805601FA03F391696B
:102E500098BF06F5004600293AD0578A04F1580178
:102E6000374349016F50D5F81C180B430021C5F8B2
:102E70001C382B180127C3F81019A7405369611E8D
:102E80009BB3138A928B9B08012A88BF5343D8F8BF
:102E90009820981842EA034301F140022146C8F8FD
:102EA0009800284605EB82025360FFF76FFE08EB9F
:102EB0008900C3681B8A43EA845348341E43640173
:102EC0002E51D5F81C381F43C5F81C78BDE8F8838F
:102ED00005EB4917D7F8001B21F40041C7F8001B88
:102EE000D5F81C1821EA0303C0E704F13F030B4A9D
:102EF0002846214605EB83035A60FFF747FE05EBA2
:102F00004910D0F8003923F40043C0F80039D5F84F
:102F10001C3823EA0707D7E70080001000040002EE
:102F2000D0F894201268C0F89820FFF7C7BD0000C1
:102F30005831D0F8903049015B5813F4004004D068
:102F400013F4001F0CBF0220012070474831D0F855
:102F5000903049015B5813F4004004D013F4001F73
:102F60000CBF02200120704700EB8101CB68196A79
:102F70000B6813604B6853607047000000EB8103DF
:102F800030B5DD68AA691368D36019B9402B84BFD6
:102F9000402313606B8A1468D0F890201C4402EB25
:102FA0004110013C09B2B4FBF3F46343033323F053
:102FB000030343EAC44343F0C043C0F8103B2B680B
:102FC00003F00303012B0ED1D2F8083802EB4110B5
:102FD00013F4807FD0F8003B14BF43F0805343F0DC
:102FE0000053C0F8003B02EB4112D2F8003B43F023
:102FF0000443C2F8003B30BD2DE9F041D0F89060A9
:1030000005460C4606EB4113D3F8087B3A07C3F894
:10301000087B08D5D6F814381B0704D500EB8103CC
:10302000DB685B689847FA071FD5D6F81438DB07CA
:103030001BD505EB8403D968CCB98B69488A5A68DB
:10304000B2FBF0F600FB16228AB91868DA689042E3
:103050000DD2121AC3E90024202383F311882146DC
:103060002846FFF78BFF84F31188BDE8F081012328
:1030700003FA04F26B8923EA02036B81CB68002B0D
:10308000F3D021462846BDE8F041184700EB810304
:103090004A0170B5DD68D0F890306C692668E6604A
:1030A00056BB1A444FF40020C2F810092A6802F0F7
:1030B0000302012A0AB20ED1D3F8080803EB421426
:1030C00010F4807FD4F8000914BF40F0805040F025
:1030D0000050C4F8000903EB4212D2F8000940F096
:1030E0000440C2F800090122D3F8340802FA01F1C1
:1030F0000143C3F8341870BD19B9402E84BF402075
:10310000206020681A442E8A8419013CB4FBF6F42E
:1031100040EAC44040F00050C6E700002DE9F0410D
:10312000D0F8906004460D4606EB4113D3F80879B9
:10313000C3F80879FB071CD5D6F81038DA0718D57C
:1031400000EB8103D3F80CC0DCF81430D3F800E0B6
:10315000DA6896451BD2A2EB0E024FF000081A6007
:10316000C3F80480202383F31188FFF78FFF88F3CF
:1031700011883B0618D50123D6F83428AB401342FA
:1031800012D029462046BDE8F041FFF7C3BC012319
:1031900003FA01F2038923EA02030381DCF8083011
:1031A000002BE6D09847E4E7BDE8F0812DE9F84F21
:1031B000D0F8905004466E69AB691E4016F48058F2
:1031C0006E6103D0BDE8F84FFEF744BC002E12DA62
:1031D000D5F8003E9F0705D0D5F8003E23F0030345
:1031E000C5F8003ED5F80438204623F00103C5F8A1
:1031F0000438FEF75BFC300505D52046FFF75EFC82
:103200002046FEF743FCB1040CD5D5F8083813F07E
:10321000060FEB6823F470530CBF43F4105343F4D0
:10322000A053EB60320704D56368DB680BB120461E
:103230009847F30200F1BA80B70226D5D4F89090EF
:1032400000274FF0010A09EB4712D2F8003B03F4C4
:103250004023B3F5802F11D1D2F8003B002B0DDABB
:1032600062890AFA07F322EA0303638104EB870306
:10327000DB68DB6813B13946204698470137D4F83C
:103280009430FFB29B689F42DDD9F00619D5D4F87F
:103290009000026AC2F30A1702F00F0302F4F01260
:1032A000B2F5802F00F0CC80B2F5402F09D104EBAD
:1032B0008303002200F58050DB681B6A974240F0D0
:1032C000B2803003D5F8185835D5E90303D500216D
:1032D0002046FFF791FEAA0303D501212046FFF700
:1032E0008BFE6B0303D502212046FFF785FE2F03DB
:1032F00003D503212046FFF77FFEE80203D5042112
:103300002046FFF779FEA90203D505212046FFF7E5
:1033100073FE6A0203D506212046FFF76DFE2B02DD
:1033200003D507212046FFF767FEEF0103D50821EB
:103330002046FFF761FE700340F1A980E90703D53D
:1033400000212046FFF7EAFEAA0703D50121204607
:10335000FFF7E4FE6B0703D502212046FFF7DEFEF0
:103360002F0703D503212046FFF7D8FEEE0603D52D
:1033700004212046FFF7D2FEA80603D505212046EA
:10338000FFF7CCFE690603D506212046FFF7C6FEEF
:103390002A0603D507212046FFF7C0FEEB0576D5A8
:1033A00020460821BDE8F84FFFF7B8BED4F890904A
:1033B00000274FF0010AD4F894305FFA87FB9B682E
:1033C0009B453FF639AF09EB4B13D3F8002902F4C4
:1033D0004022B2F5802F24D1D3F80029002A20DA28
:1033E000D3F8002942F09042C3F80029D3F800290D
:1033F000002AFBDB5946D4F89000FFF7C7FB22896F
:103400000AFA0BF322EA0303238104EB8B03DB6844
:103410009B6813B159462046984759462046FFF706
:1034200079FB0137C7E7910701D1D0F80080072A5F
:1034300002F101029CBF03F8018B4FEA18283DE717
:1034400004EB830300F58050DA68D2F818C0DCF88A
:103450000820DCE9001CA1EB0C0C00218F4208D1F4
:10346000DB689B699A683A449A605A683A445A60A1
:1034700027E711F0030F01D1D0F800808C4501F14E
:10348000010184BF02F8018B4FEA1828E6E7BDE886
:10349000F88F000008B50348FFF788FEBDE8084034
:1034A000FFF784BA2C45002008B50348FFF77EFEDD
:1034B000BDE80840FFF77ABAC8450020D0F8903040
:1034C00003EB4111D1F8003B43F40013C1F8003B7A
:1034D00070470000D0F8903003EB4111D1F800396B
:1034E00043F40013C1F8003970470000D0F8903061
:1034F00003EB4111D1F8003B23F40013C1F8003B6A
:1035000070470000D0F8903003EB4111D1F800393A
:1035100023F40013C1F8003970470000090100F1DD
:103520006043012203F56143C9B283F8001300F040
:103530001F039A4043099B0003F1604303F5614375
:10354000C3F880211A60704730B50433039C0172C0
:10355000002104FB0325C160C0E90653049B0363FB
:10356000059BC0E90000C0E90422C0E90842C0E9A7
:103570000A11436330BD00000022416AC260C0E905
:103580000411C0E90A226FF00101FEF7EDBD000051
:10359000D0E90432934201D1C2680AB9181D7047BC
:1035A00000207047036919600021C2680132C260BF
:1035B000C269134482699342036124BF436A036171
:1035C000FEF7C6BD38B504460D46E3683BB16269F7
:1035D0000020131D1268A3621344E36207E0237AFC
:1035E00033B929462046FEF7A3FD0028EDDA38BDA1
:1035F0006FF00100FBE70000C368C269013BC360D4
:103600004369134482699342436124BF436A43611F
:1036100000238362036B03B11847704770B5202302
:10362000044683F31188866A3EB9FFF7CBFF05464F
:1036300018B186F31188284670BDA36AE26A13F8B0
:10364000015B9342A36202D32046FFF7D5FF00231C
:1036500083F31188EFE700002DE9F84F04460E468A
:10366000174698464FF0200989F311880025AA468D
:10367000D4F828B0BBF1000F09D141462046FFF72E
:10368000A1FF20B18BF311882846BDE8F88FD4E95B
:103690000A12A7EB050B521A934528BF9346BBF1BC
:1036A000400F1BD9334601F1400251F8040B9142FF
:1036B00043F8040BF9D1A36A403640354033A36286
:1036C000D4E90A239A4202D32046FFF795FF8AF3F2
:1036D0001188BD42D8D289F31188C9E730465A46CD
:1036E000FDF7A0FBA36A5E445D445B44A362E7E789
:1036F00010B5029C0433017204FB0321C460C0E9CD
:1037000006130023C0E90A33039B0363049BC0E94B
:103710000000C0E90422C0E90842436310BD000074
:10372000026A6FF00101C260426AC0E9042200220D
:10373000C0E90A22FEF718BDD0E904239A4201D15C
:10374000C26822B9184650F8043B0B60704700204D
:1037500070470000C3680021C2690133C360436938
:10376000134482699342436124BF436A4361FEF775
:10377000EFBC000038B504460D46E3683BB1236951
:1037800000201A1DA262E2691344E36207E0237A73
:1037900033B929462046FEF7CBFC0028EDDA38BDC8
:1037A0006FF00100FBE7000003691960C268013A8D
:1037B000C260C269134482699342036124BF436AB1
:1037C000036100238362036B03B118477047000055
:1037D00070B520230D460446114683F31188866A8E
:1037E0002EB9FFF7C7FF10B186F3118870BDA36A29
:1037F0001D70A36AE26A01339342A36204D3E169B4
:1038000020460439FFF7D0FF002080F31188EDE750
:103810002DE9F84F04460D46904699464FF0200A90
:103820008AF311880026B346A76A4FB94946204655
:10383000FFF7A0FF20B187F311883046BDE8F88F6D
:10384000D4E90A073A1AA8EB0607974228BF174699
:10385000402F1BD905F1400355F8042B9D4240F839
:10386000042BF9D1A36A40364033A362D4E90A237A
:103870009A4204D3E16920460439FFF795FF8BF3A0
:1038800011884645D9D28AF31188CDE729463A46B0
:10389000FDF7C8FAA36A3D443E443B44A362E5E712
:1038A000D0E904239A4217D1C3689BB1836A8BB1D4
:1038B000043B9B1A0ED01360C368013BC360C3690D
:1038C0001A4483699A42026124BF436A0361002358
:1038D00083620123184670470023FBE700F0DAB843
:1038E000034B002258631A610222DA60704700BF5E
:1038F000000C0040014B0022DA607047000C0040D1
:10390000014B5863704700BF000C0040014B586AE0
:10391000704700BF000C00404B6843608B688360B9
:10392000CB68C3600B6943614B6903628B69436277
:103930000B6803607047000008B53C4B40F2FF7114
:103940003B48D3F888200A43C3F88820D3F888205E
:1039500022F4FF6222F00702C3F88820D3F88820FF
:10396000D3F8E0200A43C3F8E020D3F808210A4343
:10397000C3F808212F4AD3F808311146FFF7CCFFCE
:1039800000F5806002F11C01FFF7C6FF00F58060C2
:1039900002F13801FFF7C0FF00F5806002F1540129
:1039A000FFF7BAFF00F5806002F17001FFF7B4FF86
:1039B00000F5806002F18C01FFF7AEFF00F580603A
:1039C00002F1A801FFF7A8FF00F5806002F1C40131
:1039D000FFF7A2FF00F5806002F1E001FFF79CFF16
:1039E00000F5806002F1FC01FFF796FF02F58C7193
:1039F00000F58060FFF790FF00F000F90E4BD3F860
:103A0000902242F00102C3F89022D3F8942242F0AF
:103A10000102C3F894220522C3F898204FF06052A7
:103A2000C3F89C20054AC3F8A02008BD00440258F2
:103A3000000002587042000800ED00E01F0008037B
:103A400008B500F0D7FAFEF7E3FA0F4BD3F8DC2005
:103A500042F04002C3F8DC20D3F8042122F04002F7
:103A6000C3F80421D3F80431084B1A6842F0080265
:103A70001A601A6842F004021A60FEF749FFBDE8B6
:103A80000840FEF7EDBC00BF004402580018024891
:103A900070470000114BD3F8E82042F00802C3F849
:103AA000E820D3F8102142F00802C3F810210C4A94
:103AB000D3F81031D36B43F00803D363C722094B0B
:103AC0009A624FF0FF32DA6200229A615A63DA603A
:103AD0005A6001225A611A60704700BF00440258C0
:103AE0000010005C000C0040094A08B51169D36859
:103AF0000B40D9B29B076FEA0101116107D5202362
:103B000083F31188FEF7A4FA002383F3118808BD1C
:103B1000000C0040384B4FF0FF31D3F88020C3F841
:103B20008010D3F880200022C3F88020D3F88000D2
:103B3000D3F88400C3F88410D3F88400C3F8842039
:103B4000D3F88400D86F40F0FF4040F4FF0040F409
:103B50003F5040F03F00D867D86F20F0FF4020F47E
:103B6000FF0020F43F5020F03F00D867D86FD3F813
:103B700088006FEA40506FEA5050C3F88800D3F8CD
:103B80008800C0F30A00C3F88800D3F88800D3F88F
:103B90009000C3F89010D3F89000C3F89020D3F8A9
:103BA0009000D3F89400C3F89410D3F89400C3F8AD
:103BB0009420D3F89400D3F89800C3F89810D3F861
:103BC0009800C3F89820D3F89800D3F88C00C3F875
:103BD0008C10D3F88C00C3F88C20D3F88C00D3F869
:103BE0009C00C3F89C10D3F89C10C3F89C20D3F819
:103BF0009C3000F0D3B900BF00440258614B012251
:103C0000C3F80821604BD3F8F42042F00202C3F855
:103C1000F420D3F81C2142F00202C3F81C21022236
:103C2000D3F81C31594BDA605A689104FCD5584AD4
:103C30001A6001229A60574ADA6000221A614FF432
:103C400040429A61514B9A699204FCD51A6842F439
:103C500080721A604C4B1A6F12F4407F04D04FF4FC
:103C600080321A6700221A671A6842F001021A604D
:103C7000454B1A685007FCD500221A611A6912F0E8
:103C80003802FBD1012119604FF0804159605A6719
:103C9000414ADA62414A1A611A6842F480321A6073
:103CA000394B1A689103FCD51A6842F480521A60A5
:103CB0001A689204FCD53A4A3A499A6200225A6339
:103CC00019633949DA6399635A64384A1A64384A7D
:103CD000DA621A6842F0A8521A602B4B1A6802F096
:103CE0002852B2F1285FF9D148229A614FF48862D4
:103CF000DA6140221A622F4ADA644FF000521A65E4
:103D00002D4A5A652D4A9A6532232D4A136013684D
:103D100003F00F03022BFAD11B4B1A6942F0030286
:103D20001A611A6902F03802182AFAD1D3F8DC2095
:103D300042F00052C3F8DC20D3F8042142F00052D4
:103D4000C3F80421D3F80421D3F8DC2042F08042E8
:103D5000C3F8DC20D3F8042142F08042C3F80421E8
:103D6000D3F80421D3F8DC2042F00042C3F8DC2071
:103D7000D3F8042142F00042C3F80421D3F80431FF
:103D8000704700BF008000510044025800480258AC
:103D900000C000F0020000010000FF010088900850
:103DA00012102000630207012C02040047040508DA
:103DB000FD0BFF01200000200010E00000010100C9
:103DC000002000524FF0B04208B5D2F8883003F01E
:103DD0000103C2F8883023B1044A13680BB150685C
:103DE0009847BDE80840FEF7E1BD00BF7C460020D3
:103DF0004FF0B04208B5D2F8883003F00203C2F8A1
:103E0000883023B1044A93680BB1D0689847BDE865
:103E10000840FEF7CBBD00BF7C4600204FF0B0420B
:103E200008B5D2F8883003F00403C2F8883023B113
:103E3000044A13690BB150699847BDE80840FEF782
:103E4000B5BD00BF7C4600204FF0B04208B5D2F8A7
:103E5000883003F00803C2F8883023B1044A93691C
:103E60000BB1D0699847BDE80840FEF79FBD00BF81
:103E70007C4600204FF0B04208B5D2F8883003F0FD
:103E80001003C2F8883023B1044A136A0BB1506A98
:103E90009847BDE80840FEF789BD00BF7C4600207A
:103EA0004FF0B04310B5D3F8884004F47872C3F8EB
:103EB0008820A30604D5124A936A0BB1D06A9847AA
:103EC000600604D50E4A136B0BB1506B9847210660
:103ED00004D50B4A936B0BB1D06B9847E20504D520
:103EE000074A136C0BB1506C9847A30504D5044ADC
:103EF000936C0BB1D06C9847BDE81040FEF756BDEF
:103F00007C4600204FF0B04310B5D3F8884004F44D
:103F10007C42C3F88820620504D5164A136D0BB1A4
:103F2000506D9847230504D5124A936D0BB1D06D9F
:103F30009847E00404D50F4A136E0BB1506E9847B2
:103F4000A10404D50B4A936E0BB1D06E984762045E
:103F500004D5084A136F0BB1506F9847230404D55A
:103F6000044A936F0BB1D06F9847BDE81040FEF73D
:103F70001DBD00BF7C46002008B50348FDF70CF9C5
:103F8000BDE80840FEF712BDCC23002008B5FFF7BE
:103F9000ABFDBDE80840FEF709BD0000062108B5ED
:103FA0000846FFF7BBFA06210720FFF7B7FA0621FC
:103FB0000820FFF7B3FA06210920FFF7AFFA062120
:103FC0000A20FFF7ABFA06211720FFF7A7FA062110
:103FD0002820FFF7A3FA09217A20FFF79FFA07218B
:103FE0003220FFF79BFA0C215220BDE80840FFF772
:103FF00095BA000008B5FFF78DFD00F00DF8FDF74C
:10400000DDFAFDF7B5FCFDF787FBFFF741FDBDE8E5
:104010000840FFF763BC00000023054A194601333E
:10402000102BC2E9001102F10802F8D1704700BF5D
:104030007C46002010B501390244904201D1002095
:1040400005E0037811F8014FA34201D0181B10BD01
:104050000130F2E7034611F8012B03F8012B002A87
:10406000F9D1704753544D333248373F3F3F0053E7
:10407000544D3332483734332F3735330000000086
:10408000F0290020CC230020009600000000000052
:104090000000000000000000000000000000000020
:1040A000000000008515000871150008AD15000816
:1040B00099150008A5150008911500087D15000840
:1040C00069150008B91500080000000095160008E1
:1040D00081160008BD160008A9160008B5160008CC
:1040E000A11600088D16000879160008C9160008E8
:1040F0000000000001000000000000006D61696E1A
:104100000000000069646C650000000004410008C4
:1041100078280020F0290020010000000D20000870
:10412000000000004172647550696C6F7400254294
:104130004F415244252D424C002553455249414C94
:10414000250000000200000000000000B518000873
:10415000251900084000400098420020A842002095
:10416000020000000000000003000000000000004A
:104170006D1900080000000010000000B842002087
:104180000000000001000000000000002C4500209D
:1041900001010200FD2300080D230008A9230008E7
:1041A0008D23000843000000AC41000809024300D1
:1041B000020100C0320904000001020201000524CE
:1041C0000010010524010001042402020524060058
:1041D00001070582030800FF09040100020A00002C
:1041E00000070501024000000705810240000000B1
:1041F00012000000F8410008120110010200004006
:1042000009124157000201020301000004030904DE
:1042100025424F41524425005A65657A4837343368
:104220000030313233343536373839414243444532
:104230004600000000000000C11A0008791D0008B7
:10424000251E00084000400064460020644600200F
:1042500001000000744600208000000040010000C2
:104260000800000000010000000400000800000039
:104270000001802A00000000AAAAAAAA00010024C6
:10428000FFFF00000000000000A00A000000000185
:1042900000000000AAAAAAAA00000001FFFF000077
:1042A000000000000000000000000000000000000E
:1042B000AAAAAAAA00000000FFFF00000000000058
:1042C000000000001400000000000000AAAAAAAA32
:1042D00000000000FFFF00000000000000000000E0
:1042E0000080420000000000AAAAAAAA00404100E3
:1042F000FFFF000000000070070000000000000049
:1043000000000000AAAAAAAA00000000FFFF000007
:10431000000000000000000000000000000000009D
:10432000AAAAAAAA00000000FFFF000000000000E7
:10433000000000000000000000000000AAAAAAAAD5
:1043400000000000FFFF000000000000000000006F
:104350000000000000000000AAAAAAAA00000000B5
:10436000FFFF00000000000000000000000000004F
:1043700000000000AAAAAAAA00000000FFFF000097
:10438000000000000000000000000000000000002D
:10439000AAAAAAAA00000000FFFF00000000000077
:1043A0000000000000000000C9070000000000003D
:1043B00000001E0000000000FF00000000000000E0
:1043C000644000083F000000500400006F400008F7
:1043D0003F0000000096000000000800960000006A
:1043E00000080000040000000C420008000000006B
:1043F00000000000000000000000000000000000BD
:0444000000000000B8
:00000001FF
